:0600000000F059EF00F0D2
:100008006682D9CF30F0DACF31F09EAA21D0AECFB8
:1000180065F0ABB202D0ABA40FD0000E656EAB9802
:10002800AB88612A61042F6E030E2F6411D0000E75
:10003800616E134A142A0CD01150800FD96EDA6AF7
:1000480065C0DFFF112A3F0E116402D0000E116E49
:100058009EA011D09E90F60ECF6E600ECE6E010E51
:100068000126000E022203220422010E0526000E9C
:10007800062207220822F2A40ED0F294670ED76E49
:10008800E80ED66E010E0926000E0A220B220C225B
:100098000D2A10EC03F09EB29E929EB49E9431C03D
:1000A800DAFF30C0D9FF66921100A0EF03F04FD2FB
:1000B8009AEC04F0A5EC04F0010E636E64C062F0E3
:1000C800642A040E646470D0000E646E6DD0010E54
:1000D8005E6E710E5D6E5EC022F05DC023F0800E14
:1000E8003F6E1E0E406E416A000E436E060E426E53
:1000F80041EC04F03FC05FF040C060F012000FA870
:1001080002D0010E01D0000E1A6E196AFF0E1314E8
:10011800446E000E1414456E090ED89044364536C8
:10012800E82EFBD7300E4426000E452244501926EF
:1001380045501A2219C05DF01AC05EF05EC028F062
:100148005DC029F0800E3F6E240E406E416A000E9D
:10015800436E060E426E41EC04F03FC05FF040C0B3
:1001680060F01200800E3F6EDE0E406E1F0E416E74
:10017800000E436E060E426E41EC04F03FC05FF085
:1001880040C060F01200800E3F6EE40E406E1F0EFD
:10019800416E000E436E060E426E41EC04F03FC005
:1001A8005FF040C060F012006250446E456A4550EE
:1001B800000AD8A4E8D74450000AD8B4E4D7010A02
:1001C800D8B4D0D7030AD8B49AD7010AD8B47FD7FD
:1001D800DAD7000E04EC04F035503410331004E183
:1001E800320E325CD8A01200000E80EC04F0898236
:1001F8008980000E106E000E116E020E636E8FEC79
:1002080004F01200000EE4EC03F035503410331003
:1002180004E1040E325CD8A01200ACA2FED7105044
:10022800800FD96EDA6ADF50AD6E102A1050446E16
:10023800456A5F50445C60504558D8A0EED7ACA2E0
:10024800FED7030EDBD7000EE4EC03F03550341074
:10025800331004E1040E325CD8A012008990899210
:1002680061D1000E606E080E5F6E070E116431D00A
:10027800040E00018019D8A42CD0060E8119D8A428
:1002880028D0800E326E000E346E060E336E4BECA4
:1002980003F032C049F033C04AF000018651446E81
:1002A80087514B6E44C04CF04B50491804E14C50F8
:1002B8004A18D8B40BD0010E5926000E5A225B22D8
:1002C8005C22134A142A000E6FEC04F0000E636ED1
:1002D8001200000EE4EC03F03550341006E12D0E48
:1002E800325C010E3358D8A01200000E636E899458
:1002F800000E646E134A142A1200000E606E080E77
:100308005F6E070E11642FD0040E00018019D8A467
:100318002AD0060E8119D8A426D0800E326E000E7F
:10032800346E060E336E4BEC03F032C049F033C026
:100338004AF000018651446E87514B6E44C04CF020
:100348004B50491804E14C504A18D8B4BFD7010E95
:100358005926000E5A225B225C22134A142A000EE8
:100368006FEC04F0B3D7000EE4EC03F0B5D7000E41
:10037800606E090E5F6E080E116441D0040E000114
:100388008019D8A43CD0030E8119D8A438D0800E87
:10039800326E000E346E070E336E4BEC03F032C033
:1003A80049F033C04AF000018751446E88514B6EC2
:1003B80044C04CF04B50491816E14C504A18D8A488
:1003C80012D08351446E8451466E44C047F0465063
:1003D8004710D8B406D000F089840A0E6FEC04F0F8
:1003E80075D7899473D7010E5926000E5A225B22BD
:1003F8005C22134A142A000E6FEC04F067D7000E33
:10040800E4EC03F03550341001E169D76ED7000EE3
:10041800606E110E5F6E100E11646CD0040E000138
:100428008019D8A467D0030E8119D8A463D0800E90
:10043800326E000E346E0F0E336E4BEC03F032C08A
:1004480049F033C04AF000018F51446E90514B6E11
:1004580044C04CF04B5049183AE14C504A18D8A4C3
:1004680036D084C048F04850D8B42BD048506FECF0
:1004780004F00CD05C0E29D07A0E27D0960E25D029
:10048800B10E23D0CD0E21D0E60E1FD04850446EB9
:10049800456A4550000AD8A4EDD74450010AD8B49B
:1004A800E9D7030AD8B4E8D7010AD8B4E7D7070AC6
:1004B800D8B4E6D7010AD8B4E5D7030AD8B4E4D744
:1004C800D9D7FF0E6FEC04F03D0E1D6E0BD0010E58
:1004D8005926000E5A225B225C22134A142A000E67
:1004E8006FEC04F01DC012F012C032F0336A24EC35
:1004F80004F0ECD6000EE4EC03F03550341006E1BD
:100508002D0E325C010E3358D8A01200000E6FEC8D
:1005180004F0000E636E126812C032F0336A24ECE5
:1005280004F0E6D66250446E456A4550000AD8A4E5
:100538006ED74450000AD8B46AD7010AD8B417D77E
:10054800030AD8B4DAD6010AD8B48BD660D7635078
:10055800446E456A4550000AD8A412004450000A67
:10056800D8B4A6D5010AD8B434D6030AD8B44AD622
:10057800010AD8A4120067D60F968A941C0ED018C8
:10058800D8A40F86FCBE02D0FCAC03D00F86FC9E1C
:10059800FC9C0FB68A847F0EC16ED08E0C0E926EB4
:1005A800120E936EF19E8A908994000E0D6E000EC5
:1005B8006FEC04F0850ED56E670ED76EE80ED66E1A
:1005C800A50ECD6EF60ECF6E600ECE6E0C0EBD1261
:1005D800CA94410ECB6ECA84126812C032F0336AD4
:1005E80024EC04F0000EAC6E000EAB6E9D8A9D9854
:1005F800AC98AB889E989E9AAA86AC94000EB06E72
:100608002A0EAF6EAC8AAB8EF28AF1849D809F80F1
:10061800B5EC04F0F28E12000E28D8A405D08A801A
:10062800000E0D6E0F9012000E50D8B403D00A0EB3
:100638000E6402D08A90F4D7080E0D6412000E5092
:100648002A6E2B6AD8902A362B36080E2A26000ED8
:100658002B220D502C6E2D6A2A502C5C2D50800AAE
:100668002E6E2B50800A2E58D8A004D0000E0D6E86
:100678008A90D8D78AA002D0010E01D0000EFF0AB6
:100688002A6E8A502A18FE0B2A188A6E12003868B9
:1006980039681AD03250D96EDA6ADF503818376E96
:1006A800322AAF0E3724F66EF76A1E0EF7220800BC
:1006B800F5503918386EAF0E3724F66EF76A1D0EEE
:1006C800F7220800F5CF39F03306D8A034063328CE
:1006D800E1E13428D8A4DED73850356E3950326E6F
:1006E80035C033F0120033C037F034C038F032C0B0
:1006F8003AF019D037C0F6FF38C0F7FFF86A000E95
:10070800F76403D00800F55005D0F6CFD9FFF7CF2E
:10071800DAFFDF50396E374A382A3A50D96EDA6A2A
:1007280039C0DFFF3A2A3506D8A036063528E2E177
:100738003628D8B41200DED7B40EF66E080EF76E5F
:10074800000EF86E00EE01F010EE29F00900F5CF6A
:10075800EEFFE550E150FAE100EE80F0400EEE6A5F
:10076800E806FDE100EE4DF0190EEE6AE806FDE13F
:1007780066906692000EF86E0001B0EF04F03AC081
:1007880032F03BC033F03CC034F04BEC03F032C0E5
:100798003DF033C03EF03A503B24D96EDA6A3EC091
:1007A800DFFF3B4A3C2A3A503B24D96EDA6A3DC007
:1007B800DFFF3B4A3C2A3BC03AF03CC03BF012000A
:1007C800366E3650D8B409D04DC032F04EC033F032
:1007D8004FC034F050C035F01200F29E01C04DF009
:1007E80002C04EF003C04FF004C050F0F28E4DC06E
:1007F80032F04EC033F04FC034F050C035F0120024
:10080800366E3650D8B409D051C032F052C033F0E9
:1008180053C034F054C035F01200F29E05C051F0B8
:1008280006C052F007C053F008C054F0F28E51C011
:1008380032F052C033F053C034F054C035F01200D7
:1008480032C034F033C035F0060ED8903436353621
:10085800E82EFBD734C036F035C037F037C0BEFFBE
:1008680036C034F0D8903432D8903432300E341642
:10087800BD50CF0B3410BD6E12003FC032F040C0E7
:1008880033F041C034F042C035F043C036F077EC65
:1008980003F03FC03AF042C03BF043C03CF0C3EC29
:1008A80003F03AC03FF03BC040F0120000000000E7
:1008B8000000000000000000000010000000000020
:1008C800F61FEA1F30017101FF0406000B00020445
:0508D80006000A00010A
:1008DE00326E0FB012000A0E326405D03228D8B430
:1008EE0002D0000E326EF29E0F8032C00EF0F28EEB
:1008FE001200326E3250D8A41200F29E09C055F08A
:10090E000AC056F00BC057F00CC058F0F28E120011
:10091E00F29E000E016E000E026E000E036E000EB1
:10092E00046EF28E1200F29E000E096E000E0A6E1A
:10093E00000E0B6E000E0C6EF28E1200F29E000E6A
:10094E00056E000E066E000E076E000E086EF28E1D
:10095E001200C0EC02F05BEC00F0FDD70F9212001B
:101DAE000000C0C101C30302C2C60607C705C5C4F1
:101DBE0004CC0C0DCD0FCFCE0E0ACACB0BC9090821
:101DCE00C8D81819D91BDBDA1A1EDEDF1FDD1D1C61
:101DDE00DC14D4D515D71716D6D21213D311D1D0F1
:101DEE0010F03031F133F3F23236F6F737F5353491
:101DFE00F43CFCFD3DFF3F3EFEFA3A3BFB39F9F861
:101E0E003828E8E929EB2B2AEAEE2E2FEF2DEDEC00
:101E1E002CE42425E527E7E62622E2E323E1212030
:101E2E00E0A06061A163A3A26266A6A767A5656430
:101E3E00A46CACAD6DAF6F6EAEAA6A6BAB69A9A8A0
:101E4E006878B8B979BB7B7ABABE7E7FBF7DBDBCE0
:101E5E007CB47475B577B7B67672B2B373B1717070
:101E6E00B0509091519353529296565797559594D0
:101E7E00549C5C5D9D5F9F9E5E5A9A9B5B995958E0
:101E8E0098884849894B8B8A4A4E8E8F4F8D4D4C80
:101E9E008C448485458747468682424383418180B0
:101EAE004000C1814001C0804101C0804100C1811C
:101EBE004001C0804100C1814000C1814001C0800D
:101ECE004101C0804100C1814000C1814001C080FC
:101EDE004100C1814001C0804101C0804100C181EB
:101EEE004001C0804100C1814000C1814001C080DD
:101EFE004100C1814001C0804101C0804100C181CB
:101F0E004000C1814001C0804101C0804100C181BB
:101F1E004001C0804100C1814000C1814001C080AC
:101F2E004101C0804100C1814000C1814001C0809B
:101F3E004100C1814001C0804101C0804100C1818A
:101F4E004000C1814001C0804101C0804100C1817B
:101F5E004001C0804100C1814000C1814001C0806C
:101F6E004100C1814001C0804101C0804100C1815A
:101F7E004001C0804100C1814000C1814001C0804C
:101F8E004101C0804100C1814000C1814001C0803B
:101F9E004100C1814001C0804101C0804100C1812A
:101FAE0040040300000000850103000000008500CE
:101FBE0000850403040000000039850406000000BB
:101FCE000160000406000000015DC0332E30610088
:101FDE000403000A00020403000000064F6374208D
:101FEE00313720323032310031353A31373A3330F1
:021FFE000000E1
:020000040020DA
:08000000FFFFFFFFFFFFFFFF00
:020000040030CA
:0E000000FFC60F1EFF8081FF03C003E0034018
:00000001FF
